{
  "_format": "hh-sol-artifact-1",
  "contractName": "TokenizedVault",
  "sourceName": "contracts/TokenizedVault.sol",
  "abi": [
    {
      "inputs": [
        {
          "internalType": "contract ERC20",
          "name": "_asset",
          "type": "address"
        },
        {
          "internalType": "string",
          "name": "_name",
          "type": "string"
        },
        {
          "internalType": "string",
          "name": "_symbol",
          "type": "string"
        }
      ],
      "stateMutability": "nonpayable",
      "type": "constructor"
    },
    {
      "anonymous": false,
      "inputs": [
        {
          "indexed": true,
          "internalType": "address",
          "name": "owner",
          "type": "address"
        },
        {
          "indexed": true,
          "internalType": "address",
          "name": "spender",
          "type": "address"
        },
        {
          "indexed": false,
          "internalType": "uint256",
          "name": "value",
          "type": "uint256"
        }
      ],
      "name": "Approval",
      "type": "event"
    },
    {
      "anonymous": false,
      "inputs": [
        {
          "indexed": true,
          "internalType": "address",
          "name": "sender",
          "type": "address"
        },
        {
          "indexed": true,
          "internalType": "address",
          "name": "owner",
          "type": "address"
        },
        {
          "indexed": false,
          "internalType": "uint256",
          "name": "assets",
          "type": "uint256"
        },
        {
          "indexed": false,
          "internalType": "uint256",
          "name": "shares",
          "type": "uint256"
        }
      ],
      "name": "Deposit",
      "type": "event"
    },
    {
      "anonymous": false,
      "inputs": [
        {
          "indexed": true,
          "internalType": "address",
          "name": "previousOwner",
          "type": "address"
        },
        {
          "indexed": true,
          "internalType": "address",
          "name": "newOwner",
          "type": "address"
        }
      ],
      "name": "OwnershipTransferred",
      "type": "event"
    },
    {
      "anonymous": false,
      "inputs": [
        {
          "indexed": true,
          "internalType": "bytes32",
          "name": "role",
          "type": "bytes32"
        },
        {
          "indexed": true,
          "internalType": "bytes32",
          "name": "previousAdminRole",
          "type": "bytes32"
        },
        {
          "indexed": true,
          "internalType": "bytes32",
          "name": "newAdminRole",
          "type": "bytes32"
        }
      ],
      "name": "RoleAdminChanged",
      "type": "event"
    },
    {
      "anonymous": false,
      "inputs": [
        {
          "indexed": true,
          "internalType": "bytes32",
          "name": "role",
          "type": "bytes32"
        },
        {
          "indexed": true,
          "internalType": "address",
          "name": "account",
          "type": "address"
        },
        {
          "indexed": true,
          "internalType": "address",
          "name": "sender",
          "type": "address"
        }
      ],
      "name": "RoleGranted",
      "type": "event"
    },
    {
      "anonymous": false,
      "inputs": [
        {
          "indexed": true,
          "internalType": "bytes32",
          "name": "role",
          "type": "bytes32"
        },
        {
          "indexed": true,
          "internalType": "address",
          "name": "account",
          "type": "address"
        },
        {
          "indexed": true,
          "internalType": "address",
          "name": "sender",
          "type": "address"
        }
      ],
      "name": "RoleRevoked",
      "type": "event"
    },
    {
      "anonymous": false,
      "inputs": [
        {
          "indexed": true,
          "internalType": "address",
          "name": "from",
          "type": "address"
        },
        {
          "indexed": true,
          "internalType": "address",
          "name": "to",
          "type": "address"
        },
        {
          "indexed": false,
          "internalType": "uint256",
          "name": "value",
          "type": "uint256"
        }
      ],
      "name": "Transfer",
      "type": "event"
    },
    {
      "anonymous": false,
      "inputs": [
        {
          "indexed": true,
          "internalType": "address",
          "name": "sender",
          "type": "address"
        },
        {
          "indexed": true,
          "internalType": "address",
          "name": "receiver",
          "type": "address"
        },
        {
          "indexed": true,
          "internalType": "address",
          "name": "owner",
          "type": "address"
        },
        {
          "indexed": false,
          "internalType": "uint256",
          "name": "assets",
          "type": "uint256"
        },
        {
          "indexed": false,
          "internalType": "uint256",
          "name": "shares",
          "type": "uint256"
        }
      ],
      "name": "Withdraw",
      "type": "event"
    },
    {
      "inputs": [],
      "name": "DEFAULT_ADMIN_ROLE",
      "outputs": [
        {
          "internalType": "bytes32",
          "name": "",
          "type": "bytes32"
        }
      ],
      "stateMutability": "view",
      "type": "function"
    },
    {
      "inputs": [],
      "name": "MINTER_ROLE",
      "outputs": [
        {
          "internalType": "bytes32",
          "name": "",
          "type": "bytes32"
        }
      ],
      "stateMutability": "view",
      "type": "function"
    },
    {
      "inputs": [
        {
          "internalType": "address",
          "name": "owner",
          "type": "address"
        },
        {
          "internalType": "address",
          "name": "spender",
          "type": "address"
        }
      ],
      "name": "allowance",
      "outputs": [
        {
          "internalType": "uint256",
          "name": "",
          "type": "uint256"
        }
      ],
      "stateMutability": "view",
      "type": "function"
    },
    {
      "inputs": [
        {
          "internalType": "address",
          "name": "spender",
          "type": "address"
        },
        {
          "internalType": "uint256",
          "name": "amount",
          "type": "uint256"
        }
      ],
      "name": "approve",
      "outputs": [
        {
          "internalType": "bool",
          "name": "",
          "type": "bool"
        }
      ],
      "stateMutability": "nonpayable",
      "type": "function"
    },
    {
      "inputs": [],
      "name": "asset",
      "outputs": [
        {
          "internalType": "address",
          "name": "",
          "type": "address"
        }
      ],
      "stateMutability": "view",
      "type": "function"
    },
    {
      "inputs": [
        {
          "internalType": "address",
          "name": "account",
          "type": "address"
        }
      ],
      "name": "balanceOf",
      "outputs": [
        {
          "internalType": "uint256",
          "name": "",
          "type": "uint256"
        }
      ],
      "stateMutability": "view",
      "type": "function"
    },
    {
      "inputs": [
        {
          "internalType": "uint256",
          "name": "shares",
          "type": "uint256"
        }
      ],
      "name": "convertToAssets",
      "outputs": [
        {
          "internalType": "uint256",
          "name": "",
          "type": "uint256"
        }
      ],
      "stateMutability": "view",
      "type": "function"
    },
    {
      "inputs": [
        {
          "internalType": "uint256",
          "name": "assets",
          "type": "uint256"
        }
      ],
      "name": "convertToShares",
      "outputs": [
        {
          "internalType": "uint256",
          "name": "",
          "type": "uint256"
        }
      ],
      "stateMutability": "view",
      "type": "function"
    },
    {
      "inputs": [],
      "name": "decimals",
      "outputs": [
        {
          "internalType": "uint8",
          "name": "",
          "type": "uint8"
        }
      ],
      "stateMutability": "view",
      "type": "function"
    },
    {
      "inputs": [
        {
          "internalType": "address",
          "name": "spender",
          "type": "address"
        },
        {
          "internalType": "uint256",
          "name": "subtractedValue",
          "type": "uint256"
        }
      ],
      "name": "decreaseAllowance",
      "outputs": [
        {
          "internalType": "bool",
          "name": "",
          "type": "bool"
        }
      ],
      "stateMutability": "nonpayable",
      "type": "function"
    },
    {
      "inputs": [
        {
          "internalType": "uint256",
          "name": "assets",
          "type": "uint256"
        },
        {
          "internalType": "address",
          "name": "receiver",
          "type": "address"
        }
      ],
      "name": "deposit",
      "outputs": [
        {
          "internalType": "uint256",
          "name": "",
          "type": "uint256"
        }
      ],
      "stateMutability": "nonpayable",
      "type": "function"
    },
    {
      "inputs": [
        {
          "internalType": "bytes32",
          "name": "role",
          "type": "bytes32"
        }
      ],
      "name": "getRoleAdmin",
      "outputs": [
        {
          "internalType": "bytes32",
          "name": "",
          "type": "bytes32"
        }
      ],
      "stateMutability": "view",
      "type": "function"
    },
    {
      "inputs": [
        {
          "internalType": "bytes32",
          "name": "role",
          "type": "bytes32"
        },
        {
          "internalType": "address",
          "name": "account",
          "type": "address"
        }
      ],
      "name": "grantRole",
      "outputs": [],
      "stateMutability": "nonpayable",
      "type": "function"
    },
    {
      "inputs": [
        {
          "internalType": "bytes32",
          "name": "role",
          "type": "bytes32"
        },
        {
          "internalType": "address",
          "name": "account",
          "type": "address"
        }
      ],
      "name": "hasRole",
      "outputs": [
        {
          "internalType": "bool",
          "name": "",
          "type": "bool"
        }
      ],
      "stateMutability": "view",
      "type": "function"
    },
    {
      "inputs": [
        {
          "internalType": "address",
          "name": "spender",
          "type": "address"
        },
        {
          "internalType": "uint256",
          "name": "addedValue",
          "type": "uint256"
        }
      ],
      "name": "increaseAllowance",
      "outputs": [
        {
          "internalType": "bool",
          "name": "",
          "type": "bool"
        }
      ],
      "stateMutability": "nonpayable",
      "type": "function"
    },
    {
      "inputs": [
        {
          "internalType": "address",
          "name": "",
          "type": "address"
        }
      ],
      "name": "maxDeposit",
      "outputs": [
        {
          "internalType": "uint256",
          "name": "",
          "type": "uint256"
        }
      ],
      "stateMutability": "view",
      "type": "function"
    },
    {
      "inputs": [
        {
          "internalType": "address",
          "name": "",
          "type": "address"
        }
      ],
      "name": "maxMint",
      "outputs": [
        {
          "internalType": "uint256",
          "name": "",
          "type": "uint256"
        }
      ],
      "stateMutability": "view",
      "type": "function"
    },
    {
      "inputs": [
        {
          "internalType": "address",
          "name": "owner",
          "type": "address"
        }
      ],
      "name": "maxRedeem",
      "outputs": [
        {
          "internalType": "uint256",
          "name": "",
          "type": "uint256"
        }
      ],
      "stateMutability": "view",
      "type": "function"
    },
    {
      "inputs": [
        {
          "internalType": "address",
          "name": "owner",
          "type": "address"
        }
      ],
      "name": "maxWithdraw",
      "outputs": [
        {
          "internalType": "uint256",
          "name": "",
          "type": "uint256"
        }
      ],
      "stateMutability": "view",
      "type": "function"
    },
    {
      "inputs": [
        {
          "internalType": "address",
          "name": "to",
          "type": "address"
        },
        {
          "internalType": "uint256",
          "name": "amount",
          "type": "uint256"
        }
      ],
      "name": "mint",
      "outputs": [],
      "stateMutability": "nonpayable",
      "type": "function"
    },
    {
      "inputs": [
        {
          "internalType": "uint256",
          "name": "shares",
          "type": "uint256"
        },
        {
          "internalType": "address",
          "name": "receiver",
          "type": "address"
        }
      ],
      "name": "mint",
      "outputs": [
        {
          "internalType": "uint256",
          "name": "",
          "type": "uint256"
        }
      ],
      "stateMutability": "nonpayable",
      "type": "function"
    },
    {
      "inputs": [],
      "name": "name",
      "outputs": [
        {
          "internalType": "string",
          "name": "",
          "type": "string"
        }
      ],
      "stateMutability": "view",
      "type": "function"
    },
    {
      "inputs": [],
      "name": "owner",
      "outputs": [
        {
          "internalType": "address",
          "name": "",
          "type": "address"
        }
      ],
      "stateMutability": "view",
      "type": "function"
    },
    {
      "inputs": [
        {
          "internalType": "uint256",
          "name": "assets",
          "type": "uint256"
        }
      ],
      "name": "previewDeposit",
      "outputs": [
        {
          "internalType": "uint256",
          "name": "",
          "type": "uint256"
        }
      ],
      "stateMutability": "view",
      "type": "function"
    },
    {
      "inputs": [
        {
          "internalType": "uint256",
          "name": "shares",
          "type": "uint256"
        }
      ],
      "name": "previewMint",
      "outputs": [
        {
          "internalType": "uint256",
          "name": "",
          "type": "uint256"
        }
      ],
      "stateMutability": "view",
      "type": "function"
    },
    {
      "inputs": [
        {
          "internalType": "uint256",
          "name": "shares",
          "type": "uint256"
        }
      ],
      "name": "previewRedeem",
      "outputs": [
        {
          "internalType": "uint256",
          "name": "",
          "type": "uint256"
        }
      ],
      "stateMutability": "view",
      "type": "function"
    },
    {
      "inputs": [
        {
          "internalType": "uint256",
          "name": "assets",
          "type": "uint256"
        }
      ],
      "name": "previewWithdraw",
      "outputs": [
        {
          "internalType": "uint256",
          "name": "",
          "type": "uint256"
        }
      ],
      "stateMutability": "view",
      "type": "function"
    },
    {
      "inputs": [
        {
          "internalType": "uint256",
          "name": "shares",
          "type": "uint256"
        },
        {
          "internalType": "address",
          "name": "receiver",
          "type": "address"
        },
        {
          "internalType": "address",
          "name": "owner",
          "type": "address"
        }
      ],
      "name": "redeem",
      "outputs": [
        {
          "internalType": "uint256",
          "name": "",
          "type": "uint256"
        }
      ],
      "stateMutability": "nonpayable",
      "type": "function"
    },
    {
      "inputs": [],
      "name": "renounceOwnership",
      "outputs": [],
      "stateMutability": "nonpayable",
      "type": "function"
    },
    {
      "inputs": [
        {
          "internalType": "bytes32",
          "name": "role",
          "type": "bytes32"
        },
        {
          "internalType": "address",
          "name": "account",
          "type": "address"
        }
      ],
      "name": "renounceRole",
      "outputs": [],
      "stateMutability": "nonpayable",
      "type": "function"
    },
    {
      "inputs": [
        {
          "internalType": "bytes32",
          "name": "role",
          "type": "bytes32"
        },
        {
          "internalType": "address",
          "name": "account",
          "type": "address"
        }
      ],
      "name": "revokeRole",
      "outputs": [],
      "stateMutability": "nonpayable",
      "type": "function"
    },
    {
      "inputs": [
        {
          "internalType": "bytes4",
          "name": "interfaceId",
          "type": "bytes4"
        }
      ],
      "name": "supportsInterface",
      "outputs": [
        {
          "internalType": "bool",
          "name": "",
          "type": "bool"
        }
      ],
      "stateMutability": "view",
      "type": "function"
    },
    {
      "inputs": [],
      "name": "symbol",
      "outputs": [
        {
          "internalType": "string",
          "name": "",
          "type": "string"
        }
      ],
      "stateMutability": "view",
      "type": "function"
    },
    {
      "inputs": [],
      "name": "totalAssets",
      "outputs": [
        {
          "internalType": "uint256",
          "name": "",
          "type": "uint256"
        }
      ],
      "stateMutability": "view",
      "type": "function"
    },
    {
      "inputs": [],
      "name": "totalSupply",
      "outputs": [
        {
          "internalType": "uint256",
          "name": "",
          "type": "uint256"
        }
      ],
      "stateMutability": "view",
      "type": "function"
    },
    {
      "inputs": [
        {
          "internalType": "address",
          "name": "to",
          "type": "address"
        },
        {
          "internalType": "uint256",
          "name": "amount",
          "type": "uint256"
        }
      ],
      "name": "transfer",
      "outputs": [
        {
          "internalType": "bool",
          "name": "",
          "type": "bool"
        }
      ],
      "stateMutability": "nonpayable",
      "type": "function"
    },
    {
      "inputs": [
        {
          "internalType": "address",
          "name": "from",
          "type": "address"
        },
        {
          "internalType": "address",
          "name": "to",
          "type": "address"
        },
        {
          "internalType": "uint256",
          "name": "amount",
          "type": "uint256"
        }
      ],
      "name": "transferFrom",
      "outputs": [
        {
          "internalType": "bool",
          "name": "",
          "type": "bool"
        }
      ],
      "stateMutability": "nonpayable",
      "type": "function"
    },
    {
      "inputs": [
        {
          "internalType": "address",
          "name": "newOwner",
          "type": "address"
        }
      ],
      "name": "transferOwnership",
      "outputs": [],
      "stateMutability": "nonpayable",
      "type": "function"
    },
    {
      "inputs": [
        {
          "internalType": "uint256",
          "name": "assets",
          "type": "uint256"
        },
        {
          "internalType": "address",
          "name": "receiver",
          "type": "address"
        },
        {
          "internalType": "address",
          "name": "owner",
          "type": "address"
        }
      ],
      "name": "withdraw",
      "outputs": [
        {
          "internalType": "uint256",
          "name": "",
          "type": "uint256"
        }
      ],
      "stateMutability": "nonpayable",
      "type": "function"
    }
  ],
  "bytecode": "0x60c06040523480156200001157600080fd5b5060405162004a5138038062004a518339818101604052810190620000379190620006ad565b82828281600390816200004b919062000992565b5080600490816200005d919062000992565b50505060008062000074836200013c60201b60201c565b91509150816200008657601262000088565b805b60ff1660a08160ff16815250508273ffffffffffffffffffffffffffffffffffffffff1660808173ffffffffffffffffffffffffffffffffffffffff1681525050505050620000ec620000e06200027660201b60201c565b6200027e60201b60201c565b620001016000801b336200034460201b60201c565b620001337f9f2df0fed2c77648de5860a4cc508cd0818c85b8b8a1ab4ceeef8d981c8956a6336200034460201b60201c565b50505062000b42565b6000806000808473ffffffffffffffffffffffffffffffffffffffff1663313ce56760e01b604051602401604051602081830303815290604052907bffffffffffffffffffffffffffffffffffffffffffffffffffffffff19166020820180517bffffffffffffffffffffffffffffffffffffffffffffffffffffffff8381831617835250505050604051620001d3919062000ac6565b600060405180830381855afa9150503d806000811462000210576040519150601f19603f3d011682016040523d82523d6000602084013e62000215565b606091505b50915091508180156200022a57506020815110155b15620002675760008180602001905181019062000248919062000b10565b905060ff8016811162000265576001819450945050505062000271565b505b6000809350935050505b915091565b600033905090565b6000600660009054906101000a900473ffffffffffffffffffffffffffffffffffffffff16905081600660006101000a81548173ffffffffffffffffffffffffffffffffffffffff021916908373ffffffffffffffffffffffffffffffffffffffff1602179055508173ffffffffffffffffffffffffffffffffffffffff168173ffffffffffffffffffffffffffffffffffffffff167f8be0079c531659141344cd1fd0a4f28419497f9722a3daafe3b4186f6b6457e060405160405180910390a35050565b6200035682826200043660201b60201c565b620004325760016005600084815260200190815260200160002060000160008373ffffffffffffffffffffffffffffffffffffffff1673ffffffffffffffffffffffffffffffffffffffff16815260200190815260200160002060006101000a81548160ff021916908315150217905550620003d76200027660201b60201c565b73ffffffffffffffffffffffffffffffffffffffff168173ffffffffffffffffffffffffffffffffffffffff16837f2f8788117e7eff1d82e926ec794901d17c78024a50270940304540a733656f0d60405160405180910390a45b5050565b60006005600084815260200190815260200160002060000160008373ffffffffffffffffffffffffffffffffffffffff1673ffffffffffffffffffffffffffffffffffffffff16815260200190815260200160002060009054906101000a900460ff16905092915050565b6000604051905090565b600080fd5b600080fd5b600073ffffffffffffffffffffffffffffffffffffffff82169050919050565b6000620004e282620004b5565b9050919050565b6000620004f682620004d5565b9050919050565b6200050881620004e9565b81146200051457600080fd5b50565b6000815190506200052881620004fd565b92915050565b600080fd5b600080fd5b6000601f19601f8301169050919050565b7f4e487b7100000000000000000000000000000000000000000000000000000000600052604160045260246000fd5b620005838262000538565b810181811067ffffffffffffffff82111715620005a557620005a462000549565b5b80604052505050565b6000620005ba620004a1565b9050620005c8828262000578565b919050565b600067ffffffffffffffff821115620005eb57620005ea62000549565b5b620005f68262000538565b9050602081019050919050565b60005b838110156200062357808201518184015260208101905062000606565b60008484015250505050565b6000620006466200064084620005cd565b620005ae565b90508281526020810184848401111562000665576200066462000533565b5b6200067284828562000603565b509392505050565b600082601f8301126200069257620006916200052e565b5b8151620006a48482602086016200062f565b91505092915050565b600080600060608486031215620006c957620006c8620004ab565b5b6000620006d98682870162000517565b935050602084015167ffffffffffffffff811115620006fd57620006fc620004b0565b5b6200070b868287016200067a565b925050604084015167ffffffffffffffff8111156200072f576200072e620004b0565b5b6200073d868287016200067a565b9150509250925092565b600081519050919050565b7f4e487b7100000000000000000000000000000000000000000000000000000000600052602260045260246000fd5b600060028204905060018216806200079a57607f821691505b602082108103620007b057620007af62000752565b5b50919050565b60008190508160005260206000209050919050565b60006020601f8301049050919050565b600082821b905092915050565b6000600883026200081a7fffffffffffffffffffffffffffffffffffffffffffffffffffffffffffffffff82620007db565b620008268683620007db565b95508019841693508086168417925050509392505050565b6000819050919050565b6000819050919050565b6000620008736200086d62000867846200083e565b62000848565b6200083e565b9050919050565b6000819050919050565b6200088f8362000852565b620008a76200089e826200087a565b848454620007e8565b825550505050565b600090565b620008be620008af565b620008cb81848462000884565b505050565b5b81811015620008f357620008e7600082620008b4565b600181019050620008d1565b5050565b601f82111562000942576200090c81620007b6565b6200091784620007cb565b8101602085101562000927578190505b6200093f6200093685620007cb565b830182620008d0565b50505b505050565b600082821c905092915050565b6000620009676000198460080262000947565b1980831691505092915050565b600062000982838362000954565b9150826002028217905092915050565b6200099d8262000747565b67ffffffffffffffff811115620009b957620009b862000549565b5b620009c5825462000781565b620009d2828285620008f7565b600060209050601f83116001811462000a0a5760008415620009f5578287015190505b62000a01858262000974565b86555062000a71565b601f19841662000a1a86620007b6565b60005b8281101562000a445784890151825560018201915060208501945060208101905062000a1d565b8683101562000a64578489015162000a60601f89168262000954565b8355505b6001600288020188555050505b505050505050565b600081519050919050565b600081905092915050565b600062000a9c8262000a79565b62000aa8818562000a84565b935062000aba81856020860162000603565b80840191505092915050565b600062000ad4828462000a8f565b915081905092915050565b62000aea816200083e565b811462000af657600080fd5b50565b60008151905062000b0a8162000adf565b92915050565b60006020828403121562000b295762000b28620004ab565b5b600062000b398482850162000af9565b91505092915050565b60805160a051613ed462000b7d6000396000610ae401526000818161086a01528181610b9901528181611b780152611da80152613ed46000f3fe608060405234801561001057600080fd5b506004361061023d5760003560e01c8063715018a61161013b578063ba087652116100b8578063d547741f1161007c578063d547741f1461079e578063d905777e146107ba578063dd62ed3e146107ea578063ef8b30f71461081a578063f2fde38b1461084a5761023d565b8063ba087652146106c0578063c63d75b6146106f0578063c6e6f59214610720578063ce96cb7714610750578063d5391393146107805761023d565b8063a217fddf116100ff578063a217fddf146105e2578063a457c2d714610600578063a9059cbb14610630578063b3d7f6b914610660578063b460af94146106905761023d565b8063715018a61461053c5780638da5cb5b1461054657806391d148541461056457806394bf804d1461059457806395d89b41146105c45761023d565b80632f2ff15d116101c9578063402d267d1161018d578063402d267d1461046057806340c10f19146104905780634cdad506146104ac5780636e553f65146104dc57806370a082311461050c5761023d565b80632f2ff15d146103bc578063313ce567146103d857806336568abe146103f657806338d52e0f1461041257806339509351146104305761023d565b8063095ea7b311610210578063095ea7b3146102de5780630a28a4771461030e57806318160ddd1461033e57806323b872dd1461035c578063248a9ca31461038c5761023d565b806301e1d1141461024257806301ffc9a71461026057806306fdde031461029057806307a2d13a146102ae575b600080fd5b61024a610866565b604051610257919061285c565b60405180910390f35b61027a600480360381019061027591906128d4565b610907565b604051610287919061291c565b60405180910390f35b610298610981565b6040516102a591906129c7565b60405180910390f35b6102c860048036038101906102c39190612a15565b610a13565b6040516102d5919061285c565b60405180910390f35b6102f860048036038101906102f39190612aa0565b610a27565b604051610305919061291c565b60405180910390f35b61032860048036038101906103239190612a15565b610a4a565b604051610335919061285c565b60405180910390f35b610346610a5e565b604051610353919061285c565b60405180910390f35b61037660048036038101906103719190612ae0565b610a68565b604051610383919061291c565b60405180910390f35b6103a660048036038101906103a19190612b69565b610a97565b6040516103b39190612ba5565b60405180910390f35b6103d660048036038101906103d19190612bc0565b610ab7565b005b6103e0610ad8565b6040516103ed9190612c1c565b60405180910390f35b610410600480360381019061040b9190612bc0565b610b12565b005b61041a610b95565b6040516104279190612c46565b60405180910390f35b61044a60048036038101906104459190612aa0565b610bbd565b604051610457919061291c565b60405180910390f35b61047a60048036038101906104759190612c61565b610bf4565b604051610487919061285c565b60405180910390f35b6104aa60048036038101906104a59190612aa0565b610c1e565b005b6104c660048036038101906104c19190612a15565b610c57565b6040516104d3919061285c565b60405180910390f35b6104f660048036038101906104f19190612c8e565b610c6b565b604051610503919061285c565b60405180910390f35b61052660048036038101906105219190612c61565b610ce2565b604051610533919061285c565b60405180910390f35b610544610d2a565b005b61054e610d3e565b60405161055b9190612c46565b60405180910390f35b61057e60048036038101906105799190612bc0565b610d68565b60405161058b919061291c565b60405180910390f35b6105ae60048036038101906105a99190612c8e565b610dd3565b6040516105bb919061285c565b60405180910390f35b6105cc610e4a565b6040516105d991906129c7565b60405180910390f35b6105ea610edc565b6040516105f79190612ba5565b60405180910390f35b61061a60048036038101906106159190612aa0565b610ee3565b604051610627919061291c565b60405180910390f35b61064a60048036038101906106459190612aa0565b610f5a565b604051610657919061291c565b60405180910390f35b61067a60048036038101906106759190612a15565b610f7d565b604051610687919061285c565b60405180910390f35b6106aa60048036038101906106a59190612cce565b610f91565b6040516106b7919061285c565b60405180910390f35b6106da60048036038101906106d59190612cce565b61100a565b6040516106e7919061285c565b60405180910390f35b61070a60048036038101906107059190612c61565b611083565b604051610717919061285c565b60405180910390f35b61073a60048036038101906107359190612a15565b6110ad565b604051610747919061285c565b60405180910390f35b61076a60048036038101906107659190612c61565b6110c1565b604051610777919061285c565b60405180910390f35b6107886110dd565b6040516107959190612ba5565b60405180910390f35b6107b860048036038101906107b39190612bc0565b611101565b005b6107d460048036038101906107cf9190612c61565b611122565b6040516107e1919061285c565b60405180910390f35b61080460048036038101906107ff9190612d21565b611134565b604051610811919061285c565b60405180910390f35b610834600480360381019061082f9190612a15565b6111bb565b604051610841919061285c565b60405180910390f35b610864600480360381019061085f9190612c61565b6111cf565b005b60007f000000000000000000000000000000000000000000000000000000000000000073ffffffffffffffffffffffffffffffffffffffff166370a08231306040518263ffffffff1660e01b81526004016108c19190612c46565b602060405180830381865afa1580156108de573d6000803e3d6000fd5b505050506040513d601f19601f820116820180604052508101906109029190612d76565b905090565b60007f7965db0b000000000000000000000000000000000000000000000000000000007bffffffffffffffffffffffffffffffffffffffffffffffffffffffff1916827bffffffffffffffffffffffffffffffffffffffffffffffffffffffff1916148061097a575061097982611252565b5b9050919050565b60606003805461099090612dd2565b80601f01602080910402602001604051908101604052809291908181526020018280546109bc90612dd2565b8015610a095780601f106109de57610100808354040283529160200191610a09565b820191906000526020600020905b8154815290600101906020018083116109ec57829003601f168201915b5050505050905090565b6000610a208260006112bc565b9050919050565b600080610a32611315565b9050610a3f81858561131d565b600191505092915050565b6000610a578260016114e6565b9050919050565b6000600254905090565b600080610a73611315565b9050610a8085828561153f565b610a8b8585856115cb565b60019150509392505050565b600060056000838152602001908152602001600020600101549050919050565b610ac082610a97565b610ac981611841565b610ad38383611855565b505050565b6000610ae2611936565b7f0000000000000000000000000000000000000000000000000000000000000000610b0d9190612e32565b905090565b610b1a611315565b73ffffffffffffffffffffffffffffffffffffffff168173ffffffffffffffffffffffffffffffffffffffff1614610b87576040517f08c379a0000000000000000000000000000000000000000000000000000000008152600401610b7e90612ed9565b60405180910390fd5b610b91828261193b565b5050565b60007f0000000000000000000000000000000000000000000000000000000000000000905090565b600080610bc8611315565b9050610be9818585610bda8589611134565b610be49190612ef9565b61131d565b600191505092915050565b60007fffffffffffffffffffffffffffffffffffffffffffffffffffffffffffffffff9050919050565b7f9f2df0fed2c77648de5860a4cc508cd0818c85b8b8a1ab4ceeef8d981c8956a6610c4881611841565b610c528383611a1d565b505050565b6000610c648260006112bc565b9050919050565b6000610c7682610bf4565b831115610cb8576040517f08c379a0000000000000000000000000000000000000000000000000000000008152600401610caf90612f79565b60405180910390fd5b6000610cc3846111bb565b9050610cd8610cd0611315565b848684611b73565b8091505092915050565b60008060008373ffffffffffffffffffffffffffffffffffffffff1673ffffffffffffffffffffffffffffffffffffffff168152602001908152602001600020549050919050565b610d32611c16565b610d3c6000611c94565b565b6000600660009054906101000a900473ffffffffffffffffffffffffffffffffffffffff16905090565b60006005600084815260200190815260200160002060000160008373ffffffffffffffffffffffffffffffffffffffff1673ffffffffffffffffffffffffffffffffffffffff16815260200190815260200160002060009054906101000a900460ff16905092915050565b6000610dde82611083565b831115610e20576040517f08c379a0000000000000000000000000000000000000000000000000000000008152600401610e1790612fe5565b60405180910390fd5b6000610e2b84610f7d565b9050610e40610e38611315565b848387611b73565b8091505092915050565b606060048054610e5990612dd2565b80601f0160208091040260200160405190810160405280929190818152602001828054610e8590612dd2565b8015610ed25780601f10610ea757610100808354040283529160200191610ed2565b820191906000526020600020905b815481529060010190602001808311610eb557829003601f168201915b5050505050905090565b6000801b81565b600080610eee611315565b90506000610efc8286611134565b905083811015610f41576040517f08c379a0000000000000000000000000000000000000000000000000000000008152600401610f3890613077565b60405180910390fd5b610f4e828686840361131d565b60019250505092915050565b600080610f65611315565b9050610f728185856115cb565b600191505092915050565b6000610f8a8260016112bc565b9050919050565b6000610f9c826110c1565b841115610fde576040517f08c379a0000000000000000000000000000000000000000000000000000000008152600401610fd5906130e3565b60405180910390fd5b6000610fe985610a4a565b9050610fff610ff6611315565b85858885611d5a565b809150509392505050565b600061101582611122565b841115611057576040517f08c379a000000000000000000000000000000000000000000000000000000000815260040161104e9061314f565b60405180910390fd5b600061106285610c57565b905061107861106f611315565b85858489611d5a565b809150509392505050565b60007fffffffffffffffffffffffffffffffffffffffffffffffffffffffffffffffff9050919050565b60006110ba8260006114e6565b9050919050565b60006110d66110cf83610ce2565b60006112bc565b9050919050565b7f9f2df0fed2c77648de5860a4cc508cd0818c85b8b8a1ab4ceeef8d981c8956a681565b61110a82610a97565b61111381611841565b61111d838361193b565b505050565b600061112d82610ce2565b9050919050565b6000600160008473ffffffffffffffffffffffffffffffffffffffff1673ffffffffffffffffffffffffffffffffffffffff16815260200190815260200160002060008373ffffffffffffffffffffffffffffffffffffffff1673ffffffffffffffffffffffffffffffffffffffff16815260200190815260200160002054905092915050565b60006111c88260006114e6565b9050919050565b6111d7611c16565b600073ffffffffffffffffffffffffffffffffffffffff168173ffffffffffffffffffffffffffffffffffffffff1603611246576040517f08c379a000000000000000000000000000000000000000000000000000000000815260040161123d906131e1565b60405180910390fd5b61124f81611c94565b50565b60007f01ffc9a7000000000000000000000000000000000000000000000000000000007bffffffffffffffffffffffffffffffffffffffffffffffffffffffff1916827bffffffffffffffffffffffffffffffffffffffffffffffffffffffff1916149050919050565b600061130d60016112cb610866565b6112d59190612ef9565b6112dd611936565b600a6112e99190613334565b6112f1610a5e565b6112fb9190612ef9565b8486611e53909392919063ffffffff16565b905092915050565b600033905090565b600073ffffffffffffffffffffffffffffffffffffffff168373ffffffffffffffffffffffffffffffffffffffff160361138c576040517f08c379a0000000000000000000000000000000000000000000000000000000008152600401611383906133f1565b60405180910390fd5b600073ffffffffffffffffffffffffffffffffffffffff168273ffffffffffffffffffffffffffffffffffffffff16036113fb576040517f08c379a00000000000000000000000000000000000000000000000000000000081526004016113f290613483565b60405180910390fd5b80600160008573ffffffffffffffffffffffffffffffffffffffff1673ffffffffffffffffffffffffffffffffffffffff16815260200190815260200160002060008473ffffffffffffffffffffffffffffffffffffffff1673ffffffffffffffffffffffffffffffffffffffff168152602001908152602001600020819055508173ffffffffffffffffffffffffffffffffffffffff168373ffffffffffffffffffffffffffffffffffffffff167f8c5be1e5ebec7d5bd14f71427d1e84f3dd0314c0f7b2291e5b200ac8c7c3b925836040516114d9919061285c565b60405180910390a3505050565b60006115376114f3611936565b600a6114ff9190613334565b611507610a5e565b6115119190612ef9565b600161151b610866565b6115259190612ef9565b8486611e53909392919063ffffffff16565b905092915050565b600061154b8484611134565b90507fffffffffffffffffffffffffffffffffffffffffffffffffffffffffffffffff81146115c557818110156115b7576040517f08c379a00000000000000000000000000000000000000000000000000000000081526004016115ae906134ef565b60405180910390fd5b6115c4848484840361131d565b5b50505050565b600073ffffffffffffffffffffffffffffffffffffffff168373ffffffffffffffffffffffffffffffffffffffff160361163a576040517f08c379a000000000000000000000000000000000000000000000000000000000815260040161163190613581565b60405180910390fd5b600073ffffffffffffffffffffffffffffffffffffffff168273ffffffffffffffffffffffffffffffffffffffff16036116a9576040517f08c379a00000000000000000000000000000000000000000000000000000000081526004016116a090613613565b60405180910390fd5b6116b4838383611ec9565b60008060008573ffffffffffffffffffffffffffffffffffffffff1673ffffffffffffffffffffffffffffffffffffffff1681526020019081526020016000205490508181101561173a576040517f08c379a0000000000000000000000000000000000000000000000000000000008152600401611731906136a5565b60405180910390fd5b8181036000808673ffffffffffffffffffffffffffffffffffffffff1673ffffffffffffffffffffffffffffffffffffffff16815260200190815260200160002081905550816000808573ffffffffffffffffffffffffffffffffffffffff1673ffffffffffffffffffffffffffffffffffffffff168152602001908152602001600020600082825401925050819055508273ffffffffffffffffffffffffffffffffffffffff168473ffffffffffffffffffffffffffffffffffffffff167fddf252ad1be2c89b69c2b068fc378daa952ba7f163c4a11628f55a4df523b3ef84604051611828919061285c565b60405180910390a361183b848484611ece565b50505050565b6118528161184d611315565b611ed3565b50565b61185f8282610d68565b6119325760016005600084815260200190815260200160002060000160008373ffffffffffffffffffffffffffffffffffffffff1673ffffffffffffffffffffffffffffffffffffffff16815260200190815260200160002060006101000a81548160ff0219169083151502179055506118d7611315565b73ffffffffffffffffffffffffffffffffffffffff168173ffffffffffffffffffffffffffffffffffffffff16837f2f8788117e7eff1d82e926ec794901d17c78024a50270940304540a733656f0d60405160405180910390a45b5050565b600090565b6119458282610d68565b15611a195760006005600084815260200190815260200160002060000160008373ffffffffffffffffffffffffffffffffffffffff1673ffffffffffffffffffffffffffffffffffffffff16815260200190815260200160002060006101000a81548160ff0219169083151502179055506119be611315565b73ffffffffffffffffffffffffffffffffffffffff168173ffffffffffffffffffffffffffffffffffffffff16837ff6391f5c32d9c69d2a47ea670b442974b53935d1edc7fd64eb21e047a839171b60405160405180910390a45b5050565b600073ffffffffffffffffffffffffffffffffffffffff168273ffffffffffffffffffffffffffffffffffffffff1603611a8c576040517f08c379a0000000000000000000000000000000000000000000000000000000008152600401611a8390613711565b60405180910390fd5b611a9860008383611ec9565b8060026000828254611aaa9190612ef9565b92505081905550806000808473ffffffffffffffffffffffffffffffffffffffff1673ffffffffffffffffffffffffffffffffffffffff168152602001908152602001600020600082825401925050819055508173ffffffffffffffffffffffffffffffffffffffff16600073ffffffffffffffffffffffffffffffffffffffff167fddf252ad1be2c89b69c2b068fc378daa952ba7f163c4a11628f55a4df523b3ef83604051611b5b919061285c565b60405180910390a3611b6f60008383611ece565b5050565b611b9f7f0000000000000000000000000000000000000000000000000000000000000000853085611f58565b611ba98382611a1d565b8273ffffffffffffffffffffffffffffffffffffffff168473ffffffffffffffffffffffffffffffffffffffff167fdcbc1c05240f31ff3ad067ef1ee35ce4997762752e3a095284754544f4c709d78484604051611c08929190613731565b60405180910390a350505050565b611c1e611315565b73ffffffffffffffffffffffffffffffffffffffff16611c3c610d3e565b73ffffffffffffffffffffffffffffffffffffffff1614611c92576040517f08c379a0000000000000000000000000000000000000000000000000000000008152600401611c89906137a6565b60405180910390fd5b565b6000600660009054906101000a900473ffffffffffffffffffffffffffffffffffffffff16905081600660006101000a81548173ffffffffffffffffffffffffffffffffffffffff021916908373ffffffffffffffffffffffffffffffffffffffff1602179055508173ffffffffffffffffffffffffffffffffffffffff168173ffffffffffffffffffffffffffffffffffffffff167f8be0079c531659141344cd1fd0a4f28419497f9722a3daafe3b4186f6b6457e060405160405180910390a35050565b8273ffffffffffffffffffffffffffffffffffffffff168573ffffffffffffffffffffffffffffffffffffffff1614611d9957611d9883868361153f565b5b611da38382611fe1565b611dce7f000000000000000000000000000000000000000000000000000000000000000085846121ae565b8273ffffffffffffffffffffffffffffffffffffffff168473ffffffffffffffffffffffffffffffffffffffff168673ffffffffffffffffffffffffffffffffffffffff167ffbde797d201c681b91056529119e0b02407c7bb96a4a2c75c01fc9667232c8db8585604051611e44929190613731565b60405180910390a45050505050565b600080611e61868686612234565b905060016002811115611e7757611e766137c6565b5b836002811115611e8a57611e896137c6565b5b148015611ea8575060008480611ea357611ea26137f5565b5b868809115b15611ebd57600181611eba9190612ef9565b90505b80915050949350505050565b505050565b505050565b611edd8282610d68565b611f5457611eea81612345565b611ef88360001c6020612372565b604051602001611f099291906138f8565b6040516020818303038152906040526040517f08c379a0000000000000000000000000000000000000000000000000000000008152600401611f4b91906129c7565b60405180910390fd5b5050565b611fdb846323b872dd60e01b858585604051602401611f7993929190613932565b604051602081830303815290604052907bffffffffffffffffffffffffffffffffffffffffffffffffffffffff19166020820180517bffffffffffffffffffffffffffffffffffffffffffffffffffffffff83818316178352505050506125ae565b50505050565b600073ffffffffffffffffffffffffffffffffffffffff168273ffffffffffffffffffffffffffffffffffffffff1603612050576040517f08c379a0000000000000000000000000000000000000000000000000000000008152600401612047906139db565b60405180910390fd5b61205c82600083611ec9565b60008060008473ffffffffffffffffffffffffffffffffffffffff1673ffffffffffffffffffffffffffffffffffffffff168152602001908152602001600020549050818110156120e2576040517f08c379a00000000000000000000000000000000000000000000000000000000081526004016120d990613a6d565b60405180910390fd5b8181036000808573ffffffffffffffffffffffffffffffffffffffff1673ffffffffffffffffffffffffffffffffffffffff1681526020019081526020016000208190555081600260008282540392505081905550600073ffffffffffffffffffffffffffffffffffffffff168373ffffffffffffffffffffffffffffffffffffffff167fddf252ad1be2c89b69c2b068fc378daa952ba7f163c4a11628f55a4df523b3ef84604051612195919061285c565b60405180910390a36121a983600084611ece565b505050565b61222f8363a9059cbb60e01b84846040516024016121cd929190613a8d565b604051602081830303815290604052907bffffffffffffffffffffffffffffffffffffffffffffffffffffffff19166020820180517bffffffffffffffffffffffffffffffffffffffffffffffffffffffff83818316178352505050506125ae565b505050565b600080600080198587098587029250828110838203039150506000810361226f57838281612265576122646137f5565b5b049250505061233e565b8084116122b1576040517f08c379a00000000000000000000000000000000000000000000000000000000081526004016122a890613b02565b60405180910390fd5b60008486880990508281118203915080830392506000600186190186169050808604955080840493506001818260000304019050808302841793506000600287600302189050808702600203810290508087026002038102905080870260020381029050808702600203810290508087026002038102905080870260020381029050808502955050505050505b9392505050565b606061236b8273ffffffffffffffffffffffffffffffffffffffff16601460ff16612372565b9050919050565b6060600060028360026123859190613b22565b61238f9190612ef9565b67ffffffffffffffff8111156123a8576123a7613b64565b5b6040519080825280601f01601f1916602001820160405280156123da5781602001600182028036833780820191505090505b5090507f30000000000000000000000000000000000000000000000000000000000000008160008151811061241257612411613b93565b5b60200101907effffffffffffffffffffffffffffffffffffffffffffffffffffffffffffff1916908160001a9053507f78000000000000000000000000000000000000000000000000000000000000008160018151811061247657612475613b93565b5b60200101907effffffffffffffffffffffffffffffffffffffffffffffffffffffffffffff1916908160001a905350600060018460026124b69190613b22565b6124c09190612ef9565b90505b6001811115612560577f3031323334353637383961626364656600000000000000000000000000000000600f86166010811061250257612501613b93565b5b1a60f81b82828151811061251957612518613b93565b5b60200101907effffffffffffffffffffffffffffffffffffffffffffffffffffffffffffff1916908160001a905350600485901c94508061255990613bc2565b90506124c3565b50600084146125a4576040517f08c379a000000000000000000000000000000000000000000000000000000000815260040161259b90613c37565b60405180910390fd5b8091505092915050565b6000612610826040518060400160405280602081526020017f5361666545524332303a206c6f772d6c6576656c2063616c6c206661696c65648152508573ffffffffffffffffffffffffffffffffffffffff166126769092919063ffffffff16565b90506000815114806126325750808060200190518101906126319190613c83565b5b612671576040517f08c379a000000000000000000000000000000000000000000000000000000000815260040161266890613d22565b60405180910390fd5b505050565b6060612685848460008561268e565b90509392505050565b6060824710156126d3576040517f08c379a00000000000000000000000000000000000000000000000000000000081526004016126ca90613db4565b60405180910390fd5b6000808673ffffffffffffffffffffffffffffffffffffffff1685876040516126fc9190613e1b565b60006040518083038185875af1925050503d8060008114612739576040519150601f19603f3d011682016040523d82523d6000602084013e61273e565b606091505b509150915061274f8783838761275b565b92505050949350505050565b606083156127bd5760008351036127b557612775856127d0565b6127b4576040517f08c379a00000000000000000000000000000000000000000000000000000000081526004016127ab90613e7e565b60405180910390fd5b5b8290506127c8565b6127c783836127f3565b5b949350505050565b6000808273ffffffffffffffffffffffffffffffffffffffff163b119050919050565b6000825111156128065781518083602001fd5b806040517f08c379a000000000000000000000000000000000000000000000000000000000815260040161283a91906129c7565b60405180910390fd5b6000819050919050565b61285681612843565b82525050565b6000602082019050612871600083018461284d565b92915050565b600080fd5b60007fffffffff0000000000000000000000000000000000000000000000000000000082169050919050565b6128b18161287c565b81146128bc57600080fd5b50565b6000813590506128ce816128a8565b92915050565b6000602082840312156128ea576128e9612877565b5b60006128f8848285016128bf565b91505092915050565b60008115159050919050565b61291681612901565b82525050565b6000602082019050612931600083018461290d565b92915050565b600081519050919050565b600082825260208201905092915050565b60005b83811015612971578082015181840152602081019050612956565b60008484015250505050565b6000601f19601f8301169050919050565b600061299982612937565b6129a38185612942565b93506129b3818560208601612953565b6129bc8161297d565b840191505092915050565b600060208201905081810360008301526129e1818461298e565b905092915050565b6129f281612843565b81146129fd57600080fd5b50565b600081359050612a0f816129e9565b92915050565b600060208284031215612a2b57612a2a612877565b5b6000612a3984828501612a00565b91505092915050565b600073ffffffffffffffffffffffffffffffffffffffff82169050919050565b6000612a6d82612a42565b9050919050565b612a7d81612a62565b8114612a8857600080fd5b50565b600081359050612a9a81612a74565b92915050565b60008060408385031215612ab757612ab6612877565b5b6000612ac585828601612a8b565b9250506020612ad685828601612a00565b9150509250929050565b600080600060608486031215612af957612af8612877565b5b6000612b0786828701612a8b565b9350506020612b1886828701612a8b565b9250506040612b2986828701612a00565b9150509250925092565b6000819050919050565b612b4681612b33565b8114612b5157600080fd5b50565b600081359050612b6381612b3d565b92915050565b600060208284031215612b7f57612b7e612877565b5b6000612b8d84828501612b54565b91505092915050565b612b9f81612b33565b82525050565b6000602082019050612bba6000830184612b96565b92915050565b60008060408385031215612bd757612bd6612877565b5b6000612be585828601612b54565b9250506020612bf685828601612a8b565b9150509250929050565b600060ff82169050919050565b612c1681612c00565b82525050565b6000602082019050612c316000830184612c0d565b92915050565b612c4081612a62565b82525050565b6000602082019050612c5b6000830184612c37565b92915050565b600060208284031215612c7757612c76612877565b5b6000612c8584828501612a8b565b91505092915050565b60008060408385031215612ca557612ca4612877565b5b6000612cb385828601612a00565b9250506020612cc485828601612a8b565b9150509250929050565b600080600060608486031215612ce757612ce6612877565b5b6000612cf586828701612a00565b9350506020612d0686828701612a8b565b9250506040612d1786828701612a8b565b9150509250925092565b60008060408385031215612d3857612d37612877565b5b6000612d4685828601612a8b565b9250506020612d5785828601612a8b565b9150509250929050565b600081519050612d70816129e9565b92915050565b600060208284031215612d8c57612d8b612877565b5b6000612d9a84828501612d61565b91505092915050565b7f4e487b7100000000000000000000000000000000000000000000000000000000600052602260045260246000fd5b60006002820490506001821680612dea57607f821691505b602082108103612dfd57612dfc612da3565b5b50919050565b7f4e487b7100000000000000000000000000000000000000000000000000000000600052601160045260246000fd5b6000612e3d82612c00565b9150612e4883612c00565b9250828201905060ff811115612e6157612e60612e03565b5b92915050565b7f416363657373436f6e74726f6c3a2063616e206f6e6c792072656e6f756e636560008201527f20726f6c657320666f722073656c660000000000000000000000000000000000602082015250565b6000612ec3602f83612942565b9150612ece82612e67565b604082019050919050565b60006020820190508181036000830152612ef281612eb6565b9050919050565b6000612f0482612843565b9150612f0f83612843565b9250828201905080821115612f2757612f26612e03565b5b92915050565b7f455243343632363a206465706f736974206d6f7265207468616e206d61780000600082015250565b6000612f63601e83612942565b9150612f6e82612f2d565b602082019050919050565b60006020820190508181036000830152612f9281612f56565b9050919050565b7f455243343632363a206d696e74206d6f7265207468616e206d61780000000000600082015250565b6000612fcf601b83612942565b9150612fda82612f99565b602082019050919050565b60006020820190508181036000830152612ffe81612fc2565b9050919050565b7f45524332303a2064656372656173656420616c6c6f77616e63652062656c6f7760008201527f207a65726f000000000000000000000000000000000000000000000000000000602082015250565b6000613061602583612942565b915061306c82613005565b604082019050919050565b6000602082019050818103600083015261309081613054565b9050919050565b7f455243343632363a207769746864726177206d6f7265207468616e206d617800600082015250565b60006130cd601f83612942565b91506130d882613097565b602082019050919050565b600060208201905081810360008301526130fc816130c0565b9050919050565b7f455243343632363a2072656465656d206d6f7265207468616e206d6178000000600082015250565b6000613139601d83612942565b915061314482613103565b602082019050919050565b600060208201905081810360008301526131688161312c565b9050919050565b7f4f776e61626c653a206e6577206f776e657220697320746865207a65726f206160008201527f6464726573730000000000000000000000000000000000000000000000000000602082015250565b60006131cb602683612942565b91506131d68261316f565b604082019050919050565b600060208201905081810360008301526131fa816131be565b9050919050565b60008160011c9050919050565b6000808291508390505b60018511156132585780860481111561323457613233612e03565b5b60018516156132435780820291505b808102905061325185613201565b9450613218565b94509492505050565b600082613271576001905061332d565b8161327f576000905061332d565b8160018114613295576002811461329f576132ce565b600191505061332d565b60ff8411156132b1576132b0612e03565b5b8360020a9150848211156132c8576132c7612e03565b5b5061332d565b5060208310610133831016604e8410600b84101617156133035782820a9050838111156132fe576132fd612e03565b5b61332d565b613310848484600161320e565b9250905081840481111561332757613326612e03565b5b81810290505b9392505050565b600061333f82612843565b915061334a83612c00565b92506133777fffffffffffffffffffffffffffffffffffffffffffffffffffffffffffffffff8484613261565b905092915050565b7f45524332303a20617070726f76652066726f6d20746865207a65726f2061646460008201527f7265737300000000000000000000000000000000000000000000000000000000602082015250565b60006133db602483612942565b91506133e68261337f565b604082019050919050565b6000602082019050818103600083015261340a816133ce565b9050919050565b7f45524332303a20617070726f766520746f20746865207a65726f20616464726560008201527f7373000000000000000000000000000000000000000000000000000000000000602082015250565b600061346d602283612942565b915061347882613411565b604082019050919050565b6000602082019050818103600083015261349c81613460565b9050919050565b7f45524332303a20696e73756666696369656e7420616c6c6f77616e6365000000600082015250565b60006134d9601d83612942565b91506134e4826134a3565b602082019050919050565b60006020820190508181036000830152613508816134cc565b9050919050565b7f45524332303a207472616e736665722066726f6d20746865207a65726f20616460008201527f6472657373000000000000000000000000000000000000000000000000000000602082015250565b600061356b602583612942565b91506135768261350f565b604082019050919050565b6000602082019050818103600083015261359a8161355e565b9050919050565b7f45524332303a207472616e7366657220746f20746865207a65726f206164647260008201527f6573730000000000000000000000000000000000000000000000000000000000602082015250565b60006135fd602383612942565b9150613608826135a1565b604082019050919050565b6000602082019050818103600083015261362c816135f0565b9050919050565b7f45524332303a207472616e7366657220616d6f756e742065786365656473206260008201527f616c616e63650000000000000000000000000000000000000000000000000000602082015250565b600061368f602683612942565b915061369a82613633565b604082019050919050565b600060208201905081810360008301526136be81613682565b9050919050565b7f45524332303a206d696e7420746f20746865207a65726f206164647265737300600082015250565b60006136fb601f83612942565b9150613706826136c5565b602082019050919050565b6000602082019050818103600083015261372a816136ee565b9050919050565b6000604082019050613746600083018561284d565b613753602083018461284d565b9392505050565b7f4f776e61626c653a2063616c6c6572206973206e6f7420746865206f776e6572600082015250565b6000613790602083612942565b915061379b8261375a565b602082019050919050565b600060208201905081810360008301526137bf81613783565b9050919050565b7f4e487b7100000000000000000000000000000000000000000000000000000000600052602160045260246000fd5b7f4e487b7100000000000000000000000000000000000000000000000000000000600052601260045260246000fd5b600081905092915050565b7f416363657373436f6e74726f6c3a206163636f756e7420000000000000000000600082015250565b6000613865601783613824565b91506138708261382f565b601782019050919050565b600061388682612937565b6138908185613824565b93506138a0818560208601612953565b80840191505092915050565b7f206973206d697373696e6720726f6c6520000000000000000000000000000000600082015250565b60006138e2601183613824565b91506138ed826138ac565b601182019050919050565b600061390382613858565b915061390f828561387b565b915061391a826138d5565b9150613926828461387b565b91508190509392505050565b60006060820190506139476000830186612c37565b6139546020830185612c37565b613961604083018461284d565b949350505050565b7f45524332303a206275726e2066726f6d20746865207a65726f2061646472657360008201527f7300000000000000000000000000000000000000000000000000000000000000602082015250565b60006139c5602183612942565b91506139d082613969565b604082019050919050565b600060208201905081810360008301526139f4816139b8565b9050919050565b7f45524332303a206275726e20616d6f756e7420657863656564732062616c616e60008201527f6365000000000000000000000000000000000000000000000000000000000000602082015250565b6000613a57602283612942565b9150613a62826139fb565b604082019050919050565b60006020820190508181036000830152613a8681613a4a565b9050919050565b6000604082019050613aa26000830185612c37565b613aaf602083018461284d565b9392505050565b7f4d6174683a206d756c446976206f766572666c6f770000000000000000000000600082015250565b6000613aec601583612942565b9150613af782613ab6565b602082019050919050565b60006020820190508181036000830152613b1b81613adf565b9050919050565b6000613b2d82612843565b9150613b3883612843565b9250828202613b4681612843565b91508282048414831517613b5d57613b5c612e03565b5b5092915050565b7f4e487b7100000000000000000000000000000000000000000000000000000000600052604160045260246000fd5b7f4e487b7100000000000000000000000000000000000000000000000000000000600052603260045260246000fd5b6000613bcd82612843565b915060008203613be057613bdf612e03565b5b600182039050919050565b7f537472696e67733a20686578206c656e67746820696e73756666696369656e74600082015250565b6000613c21602083612942565b9150613c2c82613beb565b602082019050919050565b60006020820190508181036000830152613c5081613c14565b9050919050565b613c6081612901565b8114613c6b57600080fd5b50565b600081519050613c7d81613c57565b92915050565b600060208284031215613c9957613c98612877565b5b6000613ca784828501613c6e565b91505092915050565b7f5361666545524332303a204552433230206f7065726174696f6e20646964206e60008201527f6f74207375636365656400000000000000000000000000000000000000000000602082015250565b6000613d0c602a83612942565b9150613d1782613cb0565b604082019050919050565b60006020820190508181036000830152613d3b81613cff565b9050919050565b7f416464726573733a20696e73756666696369656e742062616c616e636520666f60008201527f722063616c6c0000000000000000000000000000000000000000000000000000602082015250565b6000613d9e602683612942565b9150613da982613d42565b604082019050919050565b60006020820190508181036000830152613dcd81613d91565b9050919050565b600081519050919050565b600081905092915050565b6000613df582613dd4565b613dff8185613ddf565b9350613e0f818560208601612953565b80840191505092915050565b6000613e278284613dea565b915081905092915050565b7f416464726573733a2063616c6c20746f206e6f6e2d636f6e7472616374000000600082015250565b6000613e68601d83612942565b9150613e7382613e32565b602082019050919050565b60006020820190508181036000830152613e9781613e5b565b905091905056fea2646970667358221220e2ea0e8ef5c872bcff0860e9856020ce5830bab0a946debec9694d673f42d95a64736f6c63430008120033",
  "linkReferences": {},
  "deployedLinkReferences": {}
}